:1000000065C000008BC0000089C000000C940E1079
:100010000C9437100C94601081C000007FC0000069
:100020007DC000007BC0000079C0000077C00000E8
:1000300075C0000073C0000071C000006FC00000F8
:100040000C94531B6BC000000C949C180C94D61895
:1000500065C0000063C0000061C000005FC0000018
:100060005DC000005BC0000000000007000201004E
:100070000003040600000000000000000102040864
:100080001020408001020408102001020408102002
:10009000040404040404040402020202020203032E
:1000A0000303030300000000250028002B000000CC
:1000B0000000240027002A00F500F50377058505D8
:1000C000900588079307A91290193F1A11241FBEA3
:1000D000CFEFD8E0DEBFCDBF11E0A0E0B1E0E2E4B9
:1000E000FAE302C005900D92A03FB107D9F715E0E1
:1000F000A0EFB1E001C01D92AC3CB107E1F710E008
:10010000CCECD0E004C02297FE010E941B1DC83B2E
:10011000D107C9F70E94A4120C941F1D71CF089536
:100120000F931F93CF93DF93EC018B01CB010E94C0
:10013000C716888399831B830A831D821C821F82B2
:100140001E82DF91CF911F910F910895FC011582BE
:100150001482178216820895FC0186819781089582
:10016000CF93FC01C62F4681578162817381461768
:100170005707A8F484819581840F951F0E94D01C95
:10018000A081B181A80FB91FCC9386819781019678
:100190009783868321E030E0C901CF91089520E064
:1001A00030E0C901CF910895CF93FC0126813781BA
:1001B00021153105B1F044815581A081B181A40F91
:1001C000B51FCC91CA010196628173810E94D01C37
:1001D0009583848321503109378326838C2FCF91D7
:1001E0000895C0E08C2FCF9108950F9300E020E098
:1001F00040E060E080EF91E00E94281A0F9108959E
:10020000FB014281538164817581FC0142835383E8
:1002100064837583178216820895FB012081211162
:100220000BC080E060E070E0FA01E60FF71F828308
:1002300021E030E0C9010895FB013196DF018D9185
:100240008111FDCF80E090E060E070E02E3219F186
:10025000DC01AA0FBB1F880F991F880F991F880FF9
:10026000991F8A0F9B1F30E020533109820F931F83
:10027000219121110BC08F3F910509F01CF46430CE
:10028000710594F220E030E0C901089564307105F1
:10029000CCF72E32E9F68F3F910509F09CF7DA0191
:1002A000A60FB71F12968C936F5F7F4F80E090E090
:1002B000DFCF8F929F92AF92BF92CF92DF92EF9259
:1002C000FF920F931F93CF93DF9300D01F92CDB770
:1002D000DEB78C017B010E949D1BF801778366834A
:1002E0006801F8E0CF0ED11CB8016A5F7F4F42E091
:1002F00050E0C601D8D481E090E09A83898342E03F
:1003000050E0BE016F5F7F4FC601CDD480E091E029
:100310009A83898342E050E0BE016F5F7F4FC60140
:10032000C2D41A82198242E050E0BE016F5F7F4F53
:10033000C601B9D442E050E0BE016F5F7F4FC601F5
:10034000B2D442E050E0BE016F5F7F4FC601ABD434
:10035000F701208143E0A42EB12CAC0EBD1E21116B
:100360001BC02BC048018E189F08181419040CF0EC
:1003700050C08B8241E050E0B501C60194D4A40185
:10038000B701C60190D47801C7010196F701208119
:10039000222399F021817C012223B1F32E32A1F393
:1003A00097012F5F3F4F8901F90180812F5F3F4FF8
:1003B0008823C1F28E32B9F7D5CF1B8241E050E0DD
:1003C000B501C60170D400E011E01A83098342E050
:1003D00050E0BE016F5F7F4FC60165D41A83098369
:1003E00042E050E0BE016F5F7F4FC6015CD481E008
:1003F00090E00F900F900F90DF91CF911F910F9190
:10040000FF90EF90DF90CF90BF90AF909F908F9034
:1004100008957801B9CF4F925F926F927F928F9239
:100420009F92AF92BF92CF92DF92EF92FF920F9383
:100430001F93CF93DF93CDB7DEB763970FB6F894D2
:10044000DEBF0FBECDBF5C016B014A010E949D1B48
:100450002B013C018501085F1F4FE12CF12C11C0DD
:100460000E949D1B6419750986099709C616D7064F
:10047000E806F90698F162E370E080E090E00E94FF
:10048000D91BC80147D41816190654F7F501428143
:10049000538164817581818D928DA38DB48D4817B0
:1004A00059076A077B07E9F02EEF3FEFC901639612
:1004B0000FB6F894DEBF0FBECDBFDF91CF911F9175
:1004C0000F91FF90EF90DF90CF90BF90AF909F90F3
:1004D0008F907F906F905F904F9008952FEF3FEF38
:1004E000E5CF858D968DC597F9F6C8013FD30C975A
:1004F0001CF42DEF3FEFDACF4CE050E0BE016F5F10
:100500007F4FC8017CD38B819C81982789279827AE
:100510009A8B898BF5014681578129813A8142174F
:10052000530729F0C8013CD32CEF3FEFBFCF97FF13
:10053000F9CF8F709270892B29F0C80131D32BEF3E
:100540003FEFB4CFAF80B884BA24AB24BA24A1144F
:10055000B10409F4A4C08D819E81892B71F1E12C35
:10056000F12C5DE0C52ED12CCC0EDD1E41E050E01B
:10057000B601C80144D38D85811114C0C80163D36D
:10058000C80161D3C8015FD3C8015DD3FFEFEF1A83
:10059000FF0A8D819E81982789279827E816F906FA
:1005A00028F310C081508D87C8014DD38D85982FB9
:1005B00091509D878111F8CFD9CF6DE0C62ED12CF7
:1005C000CC0EDD1EE12CF12C41E050E0BE016D5E51
:1005D0007F4FC80114D38B89982F907C09F04CC0B1
:1005E00081113FC042E050E0BE01615F7F4FC80112
:1005F00006D342E050E0B601C80101D3C80123D3BD
:10060000C80121D3C8011FD3C8011DD342E050E067
:10061000BE016F5E7F4FC801F2D28F859889811528
:10062000914071F189899A89892B79F0612C712C1B
:10063000C80109D38FEF681A780A89899A8998279F
:10064000892798276816790698F3FFEFEF1AFF0AB3
:10065000EA14FB0409F0B8CFC801A2D226EF3FEF9D
:1006600025CF81508B8BC801EED28B89982F91506A
:100670009B8B8111F8CFA8CFC801E5D21B8AB2CFDE
:100680008D859E858115914069F689899A898115A4
:10069000944051F0C80184D227EF3FEF07CFC80143
:1006A0007FD22AEF3FEF02CFB4016E5F7F4F44E06D
:1006B00050E0C801A4D221E030E0F8CEAF92BF9262
:1006C000CF92DF92EF92FF920F931F93CF93DF931E
:1006D000CDB7DEB728970FB6F894DEBF0FBECDBFFB
:1006E0008C017B016A0199DD892BB1F5F80142810A
:1006F0005381648175818091F8019091F901A091F5
:10070000FA01B091FB01481759076A077B0709F402
:1007100069C00E949D1B5801F8E0AF0EB11C6F70BC
:100720007727882799277C5FC50143D38130B9F0AB
:1007300020E030E0C90128960FB6F894DEBF0FBE66
:10074000CDBFDF91CF911F910F91FF90EF90DF9080
:10075000CF90BF90AF90089521E030E0EBCF8DEEC9
:1007600091E09A838983F80182819381A481B58184
:100770008B839C83AD83BE8345E350E0BE016F5FF6
:100780007F4FC501AAD2892B49F420E030E0C50192
:100790002F833887AAD22F813885CCCFB701C801E3
:1007A00088DD892B91F3C50194D2892B71F3A601C1
:1007B00068E873E1C8012FDE9C018F3FFFEF9F07C0
:1007C00031F7A60168E873E1C80125DE9C012F3FDF
:1007D0008FEF3807E1F6A60168E873E1C8011BDE78
:1007E0009C01D5CF2EEF3FEFA5CF0F9300E020E087
:1007F00040E060E086EF91E00E94281A0F91089592
:100800008F929F92AF92BF92CF92DF92EF92FF9220
:100810000F931F93CF93DF93EC014B016A015901B2
:100820008FEF94E00E94741446E050E0B40189E038
:1008300090E00E94AE14B6016E5F7F4F44E050E03E
:100840008FE090E00E94AE14B8016E5F7F4F44E0ED
:1008500050E081E090E00E94AE14B7016E5F7F4FE0
:1008600044E050E085E090E00E94AE14F501428142
:100870005381648175814A835B836C837D83DF91BF
:10088000CF911F910F91FF90EF90DF90CF90BF908D
:10089000AF909F908F9008956F927F928F929F92CA
:1008A000AF92BF92CF92DF92EF92FF920F931F937E
:1008B000CF93DF93CDB7DEB76E970FB6F894DEBF58
:1008C0000FBECDBF6C015B017A014901380100E028
:1008D0002FEF4FEF6FEFCE0149960E94281A4DEE91
:1008E00051E05A8349838B8D9C8DAD8DBE8D8B835A
:1008F0009C83AD83BE8358874F83F30182819381AC
:10090000A481B58189879A87AB87BC875E874D872D
:10091000F40182819381A481B5818F87988BA98B03
:10092000BA8B5C8B4B8BF70142815381648175815B
:100930004D8B5E8B6F8B788FEE24E394F12CEC0E55
:10094000FD1E8E01095F1F4F9E01235F3F4FAE01C9
:100950004D5E5F4FB501C60153DF6E960FB6F8943A
:10096000DEBF0FBECDBFDF91CF911F910F91FF90E2
:10097000EF90DF90CF90BF90AF909F908F907F903F
:100980006F900895CF92DF92EF92FF920F931F9393
:10099000CF93DF93CDB7DEB768970FB6F894DEBF7D
:1009A0000FBECDBF6B017901DA0112964D915D91B9
:1009B0006D917C9115974D8B5E8B6F8B788FADEE23
:1009C000B1E0BA83A98321E0288F0D891E892F8980
:1009D000388D0B831C832D833E83B887AF83F7014B
:1009E000028113812481358109871A872B873C87EF
:1009F000BE87AD874F87588B698B7A8B8E010F5FCF
:100A00001F4F9E01295F3F4FAE01435F5F4FB6010D
:100A100043DF68960FB6F894DEBF0FBECDBFDF91FF
:100A2000CF911F910F91FF90EF90DF90CF9008959D
:100A30000F931F93CF93DF93CDB7DEB762970FB6B7
:100A4000F894DEBF0FBECDBFDB01FA0142815381B6
:100A5000648175814F87588B698B7A8BEDEEF1E05D
:100A6000FA83E98321E02A8B0F85188929893A893D
:100A70000B831C832D833E83F887EF8349875A8736
:100A80006B877C879E012F5F3F4FAE01495F5F4FB1
:100A9000BD0178DF62960FB6F894DEBF0FBECDBF02
:100AA000DF91CF911F910F910895CF93DF93EC01C8
:100AB0000E941E1ABE016E5F7F4F44E050E08FE03F
:100AC00090E00E94E915CE01DF91CF9108952DEEBF
:100AD00031E0FC0131832083FB0142815381648139
:100AE0007581FC01428353836483758308950F935A
:100AF00000E020E040E060E08CE092E00E94281AF4
:100B00008CEF91E00F910C941E1A0F9300E020E0FF
:100B100040E060E082E192E00E94281A0F9108957F
:100B20000F9300E020E040E060E088E192E00E9466
:100B3000281A0F910895DC01ED91FC91008CF18D44
:100B4000E02D09942DEE31E0FC0131832083FB017F
:100B50004189528963897489FC0142835383648388
:100B600075830895FC01858996890895FC01818D1E
:100B7000928D0895CF93DF931F92CDB7DEB769832F
:100B8000DC01ED91FC910280F381E02D41E050E029
:100B9000BE016F5F7F4F09950F90DF91CF91089550
:100BA000CF93DF93EC01898D9A8D892B59F0E881E1
:100BB000F9810680F781E02DCE010995898D9A8D06
:100BC000892BA9F7DF91CF910895CF93DF931F92DF
:100BD000CDB7DEB7FC01218D328D232B69F0BE012C
:100BE0006F5F7F4F84850E94B813298130E0C9016F
:100BF0000F90DF91CF9108952FEF3FEFF8CFCF9374
:100C0000DF93EC01898D9A8D0097D1F04817590731
:100C100088F48C850E9477139C011216130684F4C5
:100C2000898D9A8D821B930B9A8F898FC901DF91D1
:100C3000CF910895AC018C850E9477139C01EDCF74
:100C40002FEF3FEFF3CF0F931F93CF93DF931F92BD
:100C5000CDB7DEB78C01FC01818D928D892B49F4D3
:100C60002FEF3FEFC9010F90DF91CF911F910F91AF
:100C7000089541E050E0BE016F5F7F4F84850E9480
:100C800077131816190664F7F801818D928D019774
:100C9000928F818F298130E0C9010F90DF91CF9130
:100CA0001F910F910895CF93DF93EC019A018F89E3
:100CB000988DAB01BC018C850E94C5139C018F8966
:100CC000988D820F931F988F8F8BC901DF91CF91E1
:100CD0000895FC0184850C943014FC01108E178A51
:100CE0006E5F7F4F84850C94F813CF93DF93EC01F4
:100CF0008C85843061F00E941B13EC85F0E0EE0FD0
:100D0000FF1FEC5FFD4F1182108284E08C87DF9122
:100D1000CF9108950F931F93CF93DF93CDB7DEB795
:100D200028970FB6F894DEBF0FBECDBF8C01DC0153
:100D3000ED91FC910284F385E02D0995F80164851D
:100D40008FEF94E00E945B15892B71F420E030E076
:100D5000C90128960FB6F894DEBF0FBECDBFDF9154
:100D6000CF911F910F91089548E050E0BE016F5F51
:100D70007F4FD8011C968C910E9477139C01181606
:100D8000190634F7BE016F5F7F4FC8010F960E94AE
:100D9000341A9D8180E02E81820F911DF801968B7F
:100DA000858B3F8120E08885280F311D328F218F70
:100DB000CFCFCF92DF92EF92FF920F931F93CF93FB
:100DC000DF937C016B01FC018485843051F080E06D
:100DD000DF91CF911F910F91FF90EF90DF90CF9017
:100DE000089503E014E0C0E0D0E0C8010E94D514EB
:100DF0008823B9F08831A9F021961395C430D10524
:100E0000A1F7F7018485843011F3F701D686C586F2
:100E1000128E118E20E0A60162E00E942F1381E065
:100E2000D7CF8C2FF701C487EECFFC01138212823B
:100E300048EE53E060E070E0448355836683778337
:100E400082E291E09183808384E08487CF010F96D2
:100E50000C941E1ACF92DF92EF92FF920F931F9382
:100E6000CF93DF93CDB7DEB7AF970FB6F894DEBF61
:100E70000FBECDBF7C018B016A01CE0101960E949D
:100E80001E1ACE010996D1DFCE018A960E941E1A43
:100E90006CEF71E0CE0184961ADEBE016C5D7F4F6F
:100EA000CE010196ADD9AE01465D5F4FB801CE01CE
:100EB000019604DC9C018130910581F0C901AF9657
:100EC0000FB6F894DEBF0FBECDBFDF91CF911F915B
:100ED0000F91FF90EF90DF90CF900895D701ED91A3
:100EE000FC910088F189E02D8DEE91E09DA38CA30B
:100EF0000CA51DA52EA53FA50EA31FA328A739A7A6
:100F0000A601BE016C5D7F4FC70109959C01D6CF3C
:100F10000F9300E020E040E060E08EE192E00E946C
:100F2000281A0F9108951092290210922A02109205
:100F30002D0210922F0282E090E0A0E0B0E08093BA
:100F4000300290933102A0933202B0933302109298
:100F50004702109251021092500286E491E0909361
:100F60004F0280934E0210925302089561E08AE08E
:100F70000E949A1C61E08AE00E94621C8CB580612C
:100F80008CBD8CB580648CBD61E08DE00E94621CDC
:100F900061E08BE00C94621C61E0FC0184810C94A4
:100FA0009A1C60E0FC0184810C949A1CCF93DF931F
:100FB000EC018E81882301F18FEF8EBD8F819885A2
:100FC0009C012F5F3F4F38872F838130924070F410
:100FD0004FEF0DB407FEFDCF4EBD2F813885C901FF
:100FE000019698878F832130324098F30DB407FE25
:100FF000FDCFCE01D1DF1E82DF91CF910895FF9208
:101000000F931F93CF93DF93EB010E949D1B8B01E6
:10101000FF24FA94FEBC0DB407FEFDCF8EB58F3FC2
:1010200071F00E949D1B601B710B6C177D0790F384
:1010300080E0DF91CF911F910F91FF90089581E0A3
:10104000DF91CF911F910F91FF900895AF92BF92C2
:10105000CF92DF92EF92FF921F93CF93DF9300D056
:1010600000D0CDB7DEB75C01162F29833A834B83BE
:101070005C839CDFC50195DF6CE271E0C501BFDFD9
:10108000812F80648EBD5C814B813A8129810DB4B2
:1010900007FEFDCF88E190E069017A01082E04C0C7
:1010A000F694E794D794C7940A94D2F7CEBC0DB4C3
:1010B00007FEFDCF0897883F6FEF960769F711236A
:1010C00001F1183021F587E88EBD0DB407FEFDCF84
:1010D00020E09FEF9EBD0DB407FEFDCF8EB5F5015C
:1010E000828787FD10C00F900F900F900F90DF91B7
:1010F000CF911F91FF90EF90DF90CF90BF90AF9076
:10110000089585E9E1CF2F3F71F32F5FE3CF8FEF94
:10111000DBCFFF920F931F93CF93DF93EC010E94DD
:101120009D1B8B01FF24FA94FEBC0DB407FEFDCF7E
:101130008EB58A878F3F91F40E949D1B601B710BB7
:101140006D32714088F38FE08D83CE0125DF80E022
:10115000DF91CF911F910F91FF9008958E3F19F06D
:101160008DE08D83F2CF81E0DF91CF911F910F91C0
:10117000FF900895CF92DF92EF92FF920F931F930B
:10118000CF93DF93EC0169010115110509F47AC0D1
:10119000C801820F931F8130924020F58E818823F1
:1011A00051F088819981AA81BB8184179507A60790
:1011B000B70709F469C0488359836A837B838B85A9
:1011C000833039F0E9E0440F551F661F771FEA9519
:1011D000D1F79A01AB0161E1CE0138DF882371F0CC
:1011E00083E08D83CE01D8DE80E0DF91CF911F9127
:1011F0000F91FF90EF90DF90CF900895CE0189DF9F
:10120000882381F318861F8281E08E838FEF8EBD45
:101210008F8198858C159D0568F42FEF0DB407FE1E
:10122000FDCF2EBD8F819885019698878F838C1571
:101230009D05A0F398012150310971F0F70180E07C
:1012400090E05FEF0DB407FEFDCF4EB541935EBD5C
:10125000019682179307B0F30DB407FEFDCF8EB54C
:10126000F701E20FF31F80838F819885800F911F14
:1012700098878F832985222319F08115924010F0D9
:10128000CE0194DE81E0B1CF8F819885C816D90652
:1012900008F0BCCF90CFEF92FF920F931F9379018C
:1012A00000E012E020E030E065DF1F910F91FF9039
:1012B000EF9008956EBDFA0131969A012F5F3D4F70
:1012C0000DB407FEFDCFDF0111974C914EBD0DB45B
:1012D00007FEFDCF40814EBD3296E217F30781F73E
:1012E0000DB407FEFDCF2FEF2EBD0DB407FEFDCFD1
:1012F0002FEF2EBD0DB407FEFDCF2FEF2EBD0DB489
:1013000007FEFDCF2EB5FC0122872F71253029F075
:1013100021E1258341DE80E0089581E008950F9367
:101320001F93CF93DF93EC018901411551056105AE
:10133000710551F482E18D83CE012EDE80E0DF91D4
:10134000CF911F910F9108958B85833039F0F9E08B
:10135000440F551F661F771FFA95D1F79A01AB010D
:1013600068E1CE0173DE882319F084E08D83E4CF39
:10137000A8016EEFCE019EDF8823F1F268E572E0EE
:10138000CE013DDE811103C085E18D83D5CF20E004
:1013900030E0A9016DE0CE0159DE81110CC08FEF64
:1013A0008EBD0DB407FEFDCF8EB5811104C0CE01F8
:1013B000F3DD81E0C4CF84E18D83BECFCF93DF9393
:1013C000EC019C012A5F3F4F41E050E060E070E09B
:1013D0008B8D9C8D8ED48823D9F04F89588D698D43
:1013E0007A8D452B462B472B79F44E815F8168859A
:1013F00079854F8B588F698F7A8F8C8180688C8329
:1014000081E0DF91CF91089581E0DF91CF91089540
:1014100080E0DF91CF910895CF93DF93EC01462FC9
:101420006E857F858889998901D3882359F02A8917
:1014300080E2289F900111242A583D4FC901DF9175
:10144000CF91089520E030E0C901DF91CF91089558
:101450008F929F92AF92BF92CF92DF92EF92FF92C4
:101460000F931F93CF93DF93EC014A015B012D8112
:10147000222309F464C08B899C89AD89BE898417B5
:101480009507A607B70708F45AC0223009F451C0DF
:1014900081149104A104B10409F468C04A855B85F4
:1014A0006C857D85EB8DFC8D258530E0275F3F4F7A
:1014B000DB01CA010197A109B109022E04C0B6954A
:1014C000A795979587950A94D2F7CC24CA94DC2CDB
:1014D0007601C80CD91CEA1CFB1C04C0F694E794E6
:1014E000D794C7942A95D2F7C816D906EA06FB0600
:1014F000A0F58F89988DA98DBA8D8E839F83A8873B
:10150000B9878E010A5F1F4F0FC04E815F816885CA
:10151000798598018B8D9C8DC7D291E0C91AD1082D
:10152000E108F108882359F0C114D104E104F10461
:1015300061F78A869B86AC86BD8681E001C080E02B
:10154000DF91CF911F910F91FF90EF90DF90CF909F
:10155000BF90AF909F908F900895452B462B472BBF
:1015600041F2C81AD90AEA0AFB0ACBCF1E821F82AF
:10157000188619861A861B861C861D8681E0E0CF98
:101580000F931F93CF93DF93EC018D81882341F05C
:101590008C8187FD0BC0DF91CF911F910F910AC203
:1015A00080E0DF91CF911F910F91089561E0CE010E
:1015B00033DF8C010097A1F38D81823010F14F89C8
:1015C000588D698D7A8DF801538F428F758B648B9E
:1015D000E0916D02F0916E02309759F0B8016A5EA9
:1015E0007F4FC80148960995F801808D918D938BA6
:1015F000828B8C818F778C83DF91CF911F910F919C
:10160000D9C14B895C896D897E89F801448F558FDA
:10161000668F778FD4CF2F923F924F925F927F92B7
:101620008F929F92AF92BF92CF92DF92EF92FF92F2
:101630000F931F93CF93DF93CDB7DEB728970FB6E5
:10164000F894DEBF0FBECDBF8C01F62EE72E5E8371
:101650004D83DC0115968C91813019F181E090E089
:10166000D80113969C938E9312971E821D828D81B2
:101670009E8128960FB6F894DEBF0FBECDBFDF91D6
:10168000CF911F910F91FF90EF90DF90CF90BF907F
:10169000AF909F908F907F905F904F903F902F9052
:1016A0000895F801848181FFD9CF82FD2DC1F80111
:1016B00082859385A485B5852D813E8121153105CF
:1016C00009F437C169018F2C9E2C75C0009709F071
:1016D0008BC0D80116964D915D916D917C911997B3
:1016E000411551056105710509F0DDC057968D91D1
:1016F0009D910D90BC91A02D0097A105B10509F415
:10170000F3C0F80186839783A087B187E12C22E09C
:10171000F22EEA18FB08EF81F8852684378440888A
:101720005188270C311C411C511C0297A109B10999
:10173000058404C0880F991FAA1FBB1F0A94D2F703
:10174000280E391E4A1E5B1ECE14DF0408F452C058
:10175000E114F2E0FF0609F04EC080910001909183
:101760000101A0910201B091030182159305A40526
:10177000B50509F48CC09401B201A10180917402F5
:1017800090917502CCDD882309F468CF9EEF991AF9
:10179000CE18DF08F80182859385A485B5858E0D66
:1017A0009F1DA11DB11D82879387A487B587C11492
:1017B000D10409F4BEC0F801038CF48DE02DF88744
:1017C000EF83AC01BD0139E0769567955795479554
:1017D0003A95D1F774807A9474229170AA27BB2726
:1017E0005C01772009F472CFF80186819781A0858A
:1017F000B1858CCF7601A114B10491F4D8011A9669
:101800004D915D916D917C911D9753968D919D9118
:101810000D90BC91A02D481759076A077B0728F542
:1018200041E0C201B10102D1882309F417CFA5011B
:101830004A585D4FCA018E0D9F1D4817590709F47C
:10184000A7CFD401FA012D912193E817F907D9F711
:101850005A01BFEFAB1ABB0A81E090E08A199B09DD
:101860008E0F9F1F880E991E93CFA4D0882309F452
:10187000F5CE209200013092010140920201509277
:10188000030180917302816080937302D0CF8FEF48
:101890009FEFDC018093000190930101A09302016E
:1018A000B093030168CF9E012F5F3F4F8F819885D2
:1018B000FBD0882309F4D9CE89819A81AB81BC8180
:1018C000F801038CF48DE02DF887EF832789203110
:1018D00009F448C048EF5FEF6FEF7FE0841795078A
:1018E000A607B70708F40DCFC80168DD882309F4FF
:1018F000B5CEF80186819781A085B185038CF48DE2
:10190000E02DF887EF8302CFF80182859385A485C7
:10191000B585438954896589768984179507A60713
:10192000B70709F4C9CEC80193DD882309F496CE20
:10193000BECEF801438954896589768948175907CD
:101940006A077B07A0F4838B948BA58BB68B84816D
:101950008068848383FF8BCEC80112DE882309F45C
:101960007DCE85CE48EF5FEF60E070E0B7CF80912D
:101970006D0290916E02892B49F0ED81FE81EF2B73
:1019800029F0F801848180688483E4CFD80114961B
:101990008C91E0CFCF93DF931F92CDB7DEB76983F1
:1019A00041E050E0BE016F5F7F4F35DE0F90DF9169
:1019B000CF91089580917302811102C081E0089552
:1019C0004091000150910101609102017091030169
:1019D00026E732E08091740290917502A0DC8823A2
:1019E00019F140916F0250917002609171027091F3
:1019F0007202411551056105710521F410927302BF
:101A000081E0089526E732E080917402909175029A
:101A100086DC882349F010926F02109270021092B7
:101A2000710210927202EACF80E00895CF92DF92A5
:101A3000EF92FF92CF936B017C01C42F8091000144
:101A400090910101A0910201B09103018C159D05B7
:101A5000AE05BF05E9F0AEDF811107C080E0CF9190
:101A6000FF90EF90DF90CF90089526E732E0B70126
:101A7000A60180917402909175020DDC882371F3A8
:101A8000C0920001D0920101E0920201F0920301A4
:101A9000809173028C2B8093730281E0CF91FF9031
:101AA000EF90DF90CF900895AF92BF92CF92DF92E8
:101AB000EF92FF920F931F93CF93DF93EC016A0194
:101AC0007B01590109851A852B853C850F5F1F4FC6
:101AD0002F4F3F4F041715072607370708F443C059
:101AE0008B899C89AD89BE89EF89E03109F447C0B3
:101AF00027E076956795579547952A95D1F78A01FE
:101B00009B01080F191F2A1F3B1FC901B801009133
:101B10000001109101012091020130910301601731
:101B200071078207930729F040E080DF8823D9F00E
:101B3000EF89E03149F1E894C7F8DD24EE24FF2471
:101B4000F601EE0FFF1FEE0FFF1FEA58FD4F8081D9
:101B50009181A281B381BF70F50180839183A283BB
:101B6000B38381E001C080E0DF91CF911F910F919D
:101B7000FF90EF90DF90CF90BF90AF900895452FEA
:101B8000562F672F7727BBCFDD24EE24FF24F601E5
:101B9000EE0FFF1FEA58FD4F80819181A0E0B0E079
:101BA000F50180839183A283B38381E0DDCF4F92DF
:101BB0005F926F927F928F929F92AF92BF92CF92DD
:101BC000DF92EF92FF920F931F93CF93DF93EC017D
:101BD0006A017B0128013901423051056105710517
:101BE00008F463C089859A85AB85BC850196A11DE3
:101BF000B11D84179507A607B70708F456C08B894F
:101C00009C89AD89BE892F89203109F460C04A01C1
:101C10005B0117E0B694A794979487941A95D1F72F
:101C2000880E991EAA1EBB1E809100019091010191
:101C3000A0910201B091030188169906AA06BB067D
:101C400039F040E0C501B401F1DE882371F12F893C
:101C5000203109F441C0E894C7F8DD24EE24FF24C4
:101C6000F601EE0FFF1FEE0FFF1FEA58FD4F4082F7
:101C700051826282738280917302816080937302C9
:101C80008A898230A0F18D819E81AF81B885880DCF
:101C9000991DAA1DBB1D80936F0290937002A093A3
:101CA0007102B093720281E001C080E0DF91CF91B8
:101CB0001F910F91FF90EF90DF90CF90BF90AF906A
:101CC0009F908F907F906F905F904F900895852E9A
:101CD000962EA72EBB24A4CFDD24EE24FF24F601EC
:101CE000EE0FFF1FEA58FD4F51824082C4CF81E0C2
:101CF000DDCF2F923F924F925F926F927F928F92A1
:101D00009F92AF92BF92CF92DF92EF92FF920F938A
:101D10001F93CF93DF93CDB7DEB72F970FB6F8940D
:101D2000DEBF0FBECDBF1C0149875A876B877C87FA
:101D30003E872D87F90180819181A281B38100972F
:101D4000A105B10509F4BBC0412C512C32014394CB
:101D5000480E591E6A1E7B1E1F86F10181859285E1
:101D6000A385B4858C019D010F5F1F4F2F4F3F4FFF
:101D70000D831E832F833887892B8A2B8B2B09F4A5
:101D800084C0D301C201812C912C54012EC06C015E
:101D90007D019E012F5F3F4FB701A601C10184DE87
:101DA000882309F472C089819A81AB81BC81892B17
:101DB0008A2B8B2B71F1412C512C320143944C0C0A
:101DC0005D1C6E1C7F1CD301C2011FEF811A910A9A
:101DD000A10AB10AF1014185528563857485841693
:101DE0009506A606B70608F050C02D813E814F81AA
:101DF0005885281739074A075B0748F692E0C92E2D
:101E0000D12CE12CF12C22E0422E512C612C712C92
:101E1000C0CFD701C6010196A11DB11DAC01BD0106
:101E2000441955096609770909851A852B853C856A
:101E3000401751076207730741F60FEF1FEF2FEFAF
:101E40003FE0B701A601C101B2DE8823F1F04C14D6
:101E50005D046E047F0408F045C09701860107C049
:101E6000970186014C145D046E047F04D8F5CC24E0
:101E7000CA94DC2C7601C00ED11EE21EF31EB701FF
:101E8000A601C10194DE8111EBCF80E02F960FB641
:101E9000F894DEBF0FBECDBFDF91CF911F910F91A0
:101EA000FF90EF90DF90CF90BF90AF909F908F907A
:101EB0007F906F905F904F903F902F900895D10149
:101EC0004D905D906D907C90B1E0BF8709851A853B
:101ED0002B853C85013011052105310509F43DCFE5
:101EE0001F863BCFAD85BE854D915D916D917C91F7
:101EF0004115510561057105A9F4ED85FE85408206
:101F0000518262827382FF85FF2351F0D301C201A7
:101F10000196A11DB11DF10180839183A283B3833A
:101F200081E0B4CF93018201C10141DE8111E5CF8F
:101F3000ACCFFF920F931F93CF93DF93EC010B8DE8
:101F400082E0F82EF022AE85BF858C917D858723B7
:101F500001FF53C0882309F44AC08B899C8920E083
:101F600001972FEF8F3F9207D9F78D899E8928E03F
:101F700030E051E060E010E005C0652B550F2150C6
:101F8000310989F0FC01412F31974FEFEF3FF40702
:101F9000D9F74C91472389F7452F40956423550F76
:101FA0002150310979F78F89988D20E001972FEF23
:101FB0008F3F9207D9F7F1106095809177042091B7
:101FC000760490E001968F73992730E0821793078B
:101FD000E9F0E0917704F0E0E858FB4F60838091EE
:101FE000770490E001968F73992780937704DF91AF
:101FF000CF911F910F91FF900895882309F4ADCFE1
:10200000DF91CF911F910F91FF90089501600B8F89
:10201000DF91CF911F910F91FF9008951F920F9222
:102020000FB60F9211242F933F934F935F936F93AB
:102030007F938F939F93AF93BF93EF93FF93809181
:10204000B8049091B904009709F073DFFF91EF9104
:10205000BF91AF919F918F917F916F915F914F91C0
:102060003F912F910F900FBE0F901F9018951F92C8
:102070000F920FB60F9211242F933F934F935F93BC
:102080006F937F938F939F93AF93BF93EF93FF9340
:102090008091B8049091B904009709F04ADFFF914C
:1020A000EF91BF91AF919F918F917F916F915F91D0
:1020B0004F913F912F910F900FBE0F901F90189549
:1020C0001F920F920FB60F9211242F933F934F93AD
:1020D0005F936F937F938F939F93AF93BF93EF9390
:1020E000FF938091B8049091B904009709F021DF23
:1020F000FF91EF91BF91AF919F918F917F916F91E0
:102100005F914F913F912F910F900FBE0F901F90B5
:1021100018958AB1806F8AB985B5877F85BD84B5EA
:102120008D7F84BD84B5816084BD84B5806884BDA5
:1021300084B58F7B84BD84B5806284BD84B58F7E79
:1021400084BD85B58B7F85BD85B58D7F85BD85B506
:10215000816085BD17BC18BC08953A9880917C00B9
:102160008F7780937C0080917C008F7B80937C00B4
:1021700080917A00846080937A0080917A008260F6
:1021800080937A0080917A00816080937A008091B8
:102190007A00806880937A0080917C00877F8093AA
:1021A0007C0080917C008B7F80937C0080917C0000
:1021B000826080937C0080917C008E7F80937C0085
:1021C00080917E00846080937E0080917A0080649C
:1021D00080937A0080917A0086FDFCCF0895CF939A
:1021E000DF9300D000D000D0CDB7DEB740E855E295
:1021F00060E070E08FE095E00E941119AEDF89DFAA
:102200003B9A18B83C9A18B860E071E088EE94E008
:102210000E9490008DEE91E09A8389838091F20470
:102220009091F304A091F404B091F5048B839C8306
:10223000AD83BE83AE014F5F5F4F62E171E08CEF13
:1022400091E00E94180560911001709111018DECD0
:1022500094E00E94D9066AE471E08FE095E00E9464
:10226000B11A6CEF71E0CE0101960E945505BE01D6
:102270006F5F7F4F8FE095E00E94D51A26960FB6CC
:10228000F894DEBF0FBECDBFDF91CF9108950F93BD
:102290001F930E949D1B0091C5041091C6042091BC
:1022A000C7043091C804601B710B820B930B009123
:1022B0000C0110910D0120910E0130910F0160175A
:1022C00071078207930708F08AC00E949D1B009146
:1022D000C0041091C1042091C2043091C304601B5A
:1022E000710B820B930B0091080110910901209151
:1022F0000A0130910B01601771078207930708F0FC
:1023000044C00E949D1B0091BB041091BC0420910D
:10231000BD043091BE04601B710B820B930B0091C6
:102320000401109105012091060130910701601709
:1023300071078207930718F41F910F9108950E9467
:102340009D1B6093BB047093BC048093BD04909369
:10235000BE048091BA04823009F4BAC08091F604B8
:10236000811176C068EB71E08FE095E00E94B11AB0
:102370008091CC04823008F4B5C08091C9048436C1
:1023800009F4CDC01F910F912FC10E949D1B609336
:10239000C0047093C1048093C2049093C304449A10
:1023A0008091BF04811163C011E01093BF0465E800
:1023B00071E08FE095E00E94B11A1092CB04109268
:1023C000CA0415D190E09093CB048093CA04853160
:1023D00091050CF476C01092CC04449892CF0E94E0
:1023E0009D1B6093C5047093C6048093C7049093AB
:1023F000C8048091C404882309F442C081508093AA
:10240000C4046BE671E08FE095E00E94B11A88EE9B
:1024100094E00E94AC0006970CF07CC088EE94E03B
:102420000E94AC001816190634F488EE94E00E945D
:10243000D4008093C9046BE771E08FE095E00E94BF
:10244000B11A6091C9048FE095E00E94C31A3DCF94
:102450008091BA048F5F8093BA041092F60464EC02
:1024600071E08FE095E01F910F910C94B11A1092DA
:10247000BF046BE971E08FE095E00E94B11A41CF93
:102480008DEC94E00E948A068C0182E08093C40463
:1024900060E671E08FE095E00E94B11A1092C904E5
:1024A000012B09F412CF439A8DEC94E00E9423068D
:1024B0008093C904682F88EE94E00E94B00043988E
:1024C00004CF45970997E8F41093CC04449819CFAA
:1024D0006CEA71E08FE095E00E94B11A85D010920D
:1024E000BA043CCF91E09093F6049091C9049C36D5
:1024F00069F0D0F4943601F11092C9041F910F9144
:1025000073C082E08093CC044498FBCE90E01F918E
:102510000F9151C088EE94E00E94A6007FCF81E029
:1025200090E01F910F912DC0923751F0953721F710
:1025300090E01F910F9132C090E01F910F9121C048
:1025400090E01F910F9143C00E94FD1B48DE9FDE6B
:10255000FECF0F9300E020E040E060E087EF94E0E2
:1025600077D705E621E040E06AE080EF94E070D79D
:1025700088EE94E00E948F008DEC94E00F910C9413
:1025800015072BB120692BB9019721F08EEB87BD80
:1025900088BD08958AEA87BD88BD08952BB12F763E
:1025A0002BB9019721F08EEB87BD88BD08958AEA8B
:1025B00087BD88BD08952BB12F762BB917BC019725
:1025C00019F08EEB88BD08958AEA88BD08952BB175
:1025D0002F762BB9019721F08EEB87BD18BC08959B
:1025E0008AEA87BD18BC089517BC18BC089548E056
:1025F00080E090E020917A00206420937A0020917E
:102600007A0026FDFCCF2091780030917900820F6E
:10261000931F415079F7BC0175956795759567953E
:10262000759567956350710983E89AE10E94E41CEF
:10263000862F845008951F93CF93DF93182F40E186
:10264000682F8FEF94E092D3D12F80E0C82F6FEFE7
:10265000CE018E5F9B4FDF91CF911F912CC1CF9206
:10266000DF92FF920F931F93CF93DF9300D0CDB7EC
:10267000DEB7F82E6A01862F8150853058F080E051
:102680000F900F90DF91CF911F910F91FF90DF90EE
:10269000CF9008958F2D2A836983CDDF4F2D50E091
:1026A0004C5F5F4F142F00272A816981622BC8017C
:1026B00002D1C114D10479F06D2DC8010496FBD06C
:1026C0006C2DC8010596F7D041E06F2D8FEF94E097
:1026D0004DD381E0D5CFC090FD04D090FE048FEFA4
:1026E000C81AD80AD092FE04C092FD04E5CFBF926A
:1026F000CF92DF92EF92FF920F931F93CF93DF93CE
:10270000B82E7B018A01682F8FEF94E0D4D1EC01C1
:102710000097F9F008171907D4F01C161D0664F489
:1027200000E09E01A7016B2D8FEF94E0BCD240E446
:102730006B2D8FEF94E01AD3CE01DF91CF911F91D3
:102740000F91FF90EF90DF90CF90BF900895E80138
:10275000E4CFDB2CC12CC6018D5F9B4F26D1843189
:1027600059F3882349F38C3139F3CFEFDFEFE4CF0E
:102770000F93AB0101E021E030E0682F8FEF94E090
:1027800092D281E090E00F910895AF92BF92CF92E4
:10279000DF92EF92FF920F931F93CF93DF93B82EA8
:1027A0007B016A01E901682F8FEF94E0CBD18C1790
:1027B0009D07B8F0AC2ECD2F0A2D1C2F9601A70136
:1027C0006B2D8FEF94E009D18A2D9C2FDF91CF9153
:1027D0001F910F91FF90EF90DF90CF90BF90AF903F
:1027E00008956B2D8FEF94E0ADD1A82EC92FE4CFC3
:1027F0000F931F93CF93DF93EA01FB019081911117
:1028000003C09181992351F0209779F420E030E0C2
:10281000C901DF91CF911F910F910895928191117C
:10282000F3CF93819111F0CFF1CF082F10E00C5F1F
:102830001F4F102F002744E050E0C8010C968ED0A7
:102840006D2FC801409637D06C2FC801419633D008
:1028500021E030E0C901DF91CF911F910F910895E0
:102860001F93CF93DF93182F40E2682F8FEF94E0F0
:102870007DD2D12F80E0C82FCE5FDB4F04C0CE01C8
:1028800094D083FD0EC0CE0190D084FFF8CF60E1DC
:10289000CE0111D021E030E0C901DF91CF911F912D
:1028A000089568E1CE0107D020E030E0C901DF9152
:1028B000CF911F9108952A9820EF2EBD0DB407FEE9
:1028C000FDCF2EB59EBD0DB407FEFDCF9EB58EBDCE
:1028D0000DB407FEFDCF8EB56EBD0DB407FEFDCF66
:1028E0008EB52A9A81E00895CF93DF93EC016CE2D4
:1028F00071E080E090E05DD70E94B607229A60E820
:1029000080E090E0D8DF65E58BE190E0D4DF65E51D
:102910008AE190E0D0DF80E090E49983888380E0D2
:1029200090E69987888780E098E49B838A8380E09B
:1029300098E69B878A8780E090E59D838C8380E082
:1029400090E79D878C8780E098E59F838E8380E069
:1029500098E79F878E87DF91CF9108959C0141155D
:10296000510509F1FB01BA01680F791F90EF2A9810
:102970009EBD0DB407FEFDCF8EB53EBD0DB407FE66
:10298000FDCF8EB52EBD0DB407FEFDCF8EB52F5FEA
:102990003F4F81918EBD0DB407FEFDCF8EB52A9AB3
:1029A0002617370721F7CA0108952A982FE02EBD70
:1029B0000DB407FEFDCF2EB59EBD0DB407FEFDCFB5
:1029C0009EB58EBD0DB407FEFDCF8EB51EBC0DB4F9
:1029D00007FEFDCF8EB52A9A08953F924F925F92DF
:1029E0006F927F928F929F92AF92BF92CF92DF921F
:1029F000EF92FF920F931F93CF93DF937C013A01E5
:102A00004901462E512C620164E0C60ED11CDC2C1B
:102A1000CC24560184E2A80EB11CC501C6DF382EB5
:102A200095E2C90ED11CC601C0DFD32DE0E0CE2F48
:102A3000C82BC60DD71D9E013770440C551CE40CE5
:102A4000F51CF70180819181820F931FA901400F2E
:102A5000511F41305840E0F4A801B4017FDFC00F9E
:102A6000D11F6D2FC50127DF6C2FC601DF91CF91DC
:102A70001F910F91FF90EF90DF90CF90BF90AF909C
:102A80009F908F907F906F905F904F903F9013CF6B
:102A9000612C48E0742E621A730AA301B4015EDF50
:102AA000A80146195709B401660D771DF701808109
:102AB000918154DFD4CF8F929F92AF92BF92CF92E9
:102AC000DF92EF92FF920F931F93CF93DF93C62E67
:102AD000D12C84E0C80ED11CDC2CCC24560196E20B
:102AE000A90EB11C87E2C80ED11CE12CF12C03C049
:102AF000E016F106C9F0C50158DF182FC60155DFF1
:102B0000D12F90E0C92F8E01082B0115110581F3FB
:102B1000C5014BDFF82EC60148DF9F2C812C7401C4
:102B2000E82AE016F10639F7C701DF91CF911F912E
:102B30000F91FF90EF90DF90CF90BF90AF909F905C
:102B40008F9008958F929F92AF92BF92CF92DF9213
:102B5000EF92FF920F931F93CF93DF93C62ED12C4A
:102B600084E0C80ED11CDC2CCC24560190E2A90EC6
:102B7000B11C81E2C80ED11CE12CF12C03C0E0167F
:102B8000F106C9F0C50111DF182FC6010EDFD12FE4
:102B900090E0C92F8E01082B0115110581F3C501A5
:102BA00004DFF82EC60101DF9F2C812C7401E82A76
:102BB000E016F10639F7C701DF91CF911F910F9110
:102BC000FF90EF90DF90CF90BF90AF909F908F904D
:102BD00008959C014115510509F1FB01BA01680FE7
:102BE000791F9FE02A989EBD0DB407FEFDCF8EB5DC
:102BF0003EBD0DB407FEFDCF8EB52EBD0DB407FE54
:102C0000FDCF8EB52F5F3F4F1EBC0DB407FEFDCF2D
:102C10008EB581932A9A2617370721F7CA0108959E
:102C2000CF92DF92EF92FF920F931F93CF93DF9398
:102C300000D0CDB7DEB75770C62ED12C64E0C60EDB
:102C4000D11CCC0CDD1CC80ED91EF60180819181EF
:102C5000840F951FB801640F751F6130784068F4C8
:102C6000A801B9010F900F90DF91CF911F910F91A3
:102C7000FF90EF90DF90CF90ACCFE12CF8E0FF2EEB
:102C8000E41AF50AA701B90129833A83A2DFA80152
:102C90004E195F0929813A81B9016E0D7F1DF60138
:102CA00080819181DFCF2F923F925F926F927F92CE
:102CB0008F929F92AF92BF92CF92DF92EF92FF924C
:102CC0000F931F93CF93DF931F92CDB7DEB74C01C5
:102CD0003A016901502E862F90E00496B82EAA245E
:102CE000750188E2E80EF11CC70169835EDE182FCA
:102CF0001501E9E22E0E311CC10157DEB12EA12CC7
:102D0000A82A86019301A5016981C40189DF5520A4
:102D100099F00F90DF91CF911F910F91FF90EF905D
:102D2000DF90CF90BF90AF909F908F907F906F90EB
:102D30005F903F902F900895CA0CDB1C6D2DC7014A
:102D4000BADD6C2DC1010F90DF91CF911F910F91D2
:102D5000FF90EF90DF90CF90BF90AF909F908F90BB
:102D60007F906F905F903F902F90A5CDCF93DF9392
:102D7000D62F80E0C82FCF5FDB4F642FCE019BDDC5
:102D8000CE0113DE8111FCCFDF91CF9108950F9317
:102D90001F93CF93DF938230910510F482E090E08F
:102DA000E091CA05F091CB0520E030E0C0E0D0E032
:102DB00023C04081518148175907A8F04817590787
:102DC00061F482819381209719F09B838A832EC0BE
:102DD0009093CB058093CA0529C02115310529F0B0
:102DE0004217530710F0A90102C0BE01DF010281A2
:102DF0001381EF019A01F8013097D9F621153105B9
:102E000009F1281B390B2430310590F412968D916D
:102E10009C9113976115710521F0FB0193838283C7
:102E200004C09093CB058093CA05FD01329644C03F
:102E3000FD01E20FF31F81939193225031092D93ED
:102E40003C933AC02091C8053091C905232B41F429
:102E500020911A0130911B013093C9052093C805B8
:102E600020911801309119012115310541F42DB738
:102E70003EB740911C0150911D01241B350BE09180
:102E8000C805F091C905E217F307A0F42E1B3F0B0C
:102E90002817390778F0AC014E5F5F4F24173507CC
:102EA00048F04E0F5F1F5093C9054093C8058193AA
:102EB000919302C0E0E0F0E0CF01DF91CF911F914C
:102EC0000F910895EF92FF920F931F93CF93DF938B
:102ED000009709F48FC0DC01129713961C921E9282
:102EE0001297E090CA05F090CB05E114F10489F443
:102EF0002D913C911197280F391F8091C805909111
:102F0000C9058217930789F5B093C905A093C80531
:102F100071C0E70120E030E001C0EA01CA17DB0719
:102F200038F44A815B819E0141155105B1F722C0F9
:102F3000BC0162507109FB01D383C28300811181FE
:102F4000AC01400F511F4C175D0761F44881598156
:102F5000400F511F4E5F5F4F518340834A815B8119
:102F6000538342832115310529F4B093CB05A093F7
:102F7000CA0540C0F901B383A283E901699179913F
:102F8000C60FD71FAC17BD0779F4DC015E914E91D7
:102F9000460F571F4E5F5F4F5183408312968D91AE
:102FA0009C91139793838283A0E0B0E002C0D70185
:102FB0007C01F701828193810097C9F7C7010296CE
:102FC00020813181820F931F2091C8053091C9055E
:102FD0002817390779F4109729F41092CB0510922D
:102FE000CA0504C013961C921E921297F092C9054E
:102FF000E092C805DF91CF911F910F91FF90EF9064
:103000000895FC0184859585FC01E05CFF4F2081DB
:103010003181FC01EE5BFF4F80819181281B390BD0
:103020002F733327C9010895FC0184859585FC0120
:10303000E05CFF4F40815181FC01EE5BFF4F20813E
:1030400031814217530741F00190F081E02DE80FE4
:10305000F91F208130E002C02FEF3FEFC901089532
:10306000FC0184859585FC01E05CFF4F4081518126
:10307000FC01EE5BFF4F208131814217530781F045
:10308000A081B181A80FB91F8C91208131812F5F60
:103090003F4F2F73332731832083282F30E002C026
:1030A0002FEF3FEFC9010895FC0181A1882329F08A
:1030B000A489B5898C9186FFFBCF11A20895CF9387
:1030C000DF93FC0126853785D901A05CBF4F8D9128
:1030D0009C91119701968F739927E901CE5BDF4F81
:1030E0004881598184179507D9F30D90BC91A02D83
:1030F000A20FB31F6C93A685B785A05CBF4F119636
:103100009C938E93A689B7892C9181E090E0078CDF
:1031100002C0880F991F0A94E2F7282B2C9381E0B4
:1031200081A30488F589E02D80818064808381E01B
:1031300090E0DF91CF9108951F920F920FB60F92FA
:1031400011242F933F934F938F939F93EF93FF936C
:103150008091C00082FD1CC04091C6008091B505E1
:103160009091B60501968F7399272091B7053091FC
:10317000B8058217930771F0E091B505F091B60597
:10318000EB58FA4F40839093B6058093B50502C083
:103190008091C600FF91EF919F918F914F913F9148
:1031A0002F910F900FBE0F901F9018951F920F92A6
:1031B0000FB60F9211242F933F938F939F93EF930A
:1031C000FF93209171053091720580917305909164
:1031D00074052817390731F48091C1008F7D8093E1
:1031E000C10014C0E0917305F0917405EF5CFA4FD3
:1031F0002081809173059091740501968F739927B2
:1032000090937405809373052093C600FF91EF910E
:103210009F918F913F912F910F900FBE0F901F9014
:103220001895CF92DF92EF92FF92CF93DF93EC014C
:103230006A017B01411581EE580761057105F1F0C6
:10324000EC89FD8981E090E008A002C0880F991FF9
:103250000A94E2F7808360E079E08DE390E0A701D3
:103260009601C5D321503109410951095695479519
:1032700037952795211580E1380790F0EC89FD8975
:10328000108260E874E88EE190E0A7019601AFD368
:103290002150310941095109569547953795279590
:1032A000E889F9893083EA89FB89208319A2EE89AC
:1032B000FF89408181E090E09C010C8C02C0220FCC
:1032C000331F0A94E2F7422B4083EE89FF89408145
:1032D0009C010D8C02C0220F331F0A94E2F7422B8F
:1032E0004083EE89FF8940819C010E8C02C0220F31
:1032F000331F0A94E2F7422B4083EE89FF89208135
:103300000F8C02C0880F991F0A94E2F780958223E0
:103310008083DF91CF91FF90EF90DF90CF90089561
:10332000109212051092110588EE93E0A0E0B0E033
:103330008093130590931405A0931505B09316057B
:103340008DED91E09093100580930F0585E795E052
:1033500090931C0580931B0581E395E090931E05D7
:1033600080931D0585EC90E09093200580931F05C8
:1033700084EC90E0909322058093210580EC90E00E
:10338000909324058093230581EC90E0909326058B
:103390008093250582EC90E0909328058093270583
:1033A00086EC90E090932A058093290584E0809331
:1033B0002B0583E080932C0587E080932D0585E025
:1033C00080932E0581E080932F050895AF92BF92E0
:1033D000CF92DF92EF92FF920F931F93CF93DF93E1
:1033E0006C017B01C0E0D0E000E010E0F601EC0FE2
:1033F000FD1F4AE050E06281C7014FD15C016EE2DF
:10340000C7018AD08A0D9B1D080F191F2196C33052
:10341000D10561F74AE050E0F6016581C7013DD171
:10342000080F191FC801DF91CF911F910F91FF90D5
:10343000EF90DF90CF90BF90AF9008952DEE31E0E8
:10344000FC01318320831282138214821582089535
:103450000F93FC018DEE91E091838083628343831F
:10346000248305830F910895FC01DB014D915D914B
:103470006D917C91428353836483758308958DEEAF
:1034800091E09093BA058093B9051092BB05109214
:10349000BC051092BD051092BE050895CF92DF9233
:1034A000EF92FF920F931F93CF93DF936C01EB0189
:1034B0007A01E60EF71E00E010E00BC06991D6011C
:1034C000ED91FC910190F081E02DC6010995080F66
:1034D000191FCE15DF0591F7C801DF91CF911F911C
:1034E0000F91FF90EF90DF90CF90089561157105D7
:1034F00081F0DB010D900020E9F7AD014150510949
:10350000461B570BDC01ED91FC910280F381E02D0D
:10351000099480E090E00895DC01ED91FC91019028
:10352000F081E02D0994DB01ED91FC911197019060
:10353000F081E02DBC01CD0109940F931F93CF932F
:10354000DF93EC016DE0E8DF8C016AE0CE01E4DF9F
:103550009C01200F311FC901DF91CF911F910F9165
:1035600008950F931F93CF93DF93EC01BFDF8C017E
:10357000CE01E3DF9801280F391FC901DF91CF91F8
:103580001F910F9108950F931F93CF93DF93EC0139
:10359000C3DF8C01CE01D1DF9C01200F311FC90197
:1035A000DF91CF911F910F9108950F931F93CF93A8
:1035B000DF93EC01B8DF8C01CE01BFDF9C01200F4F
:1035C000311FC901DF91CF911F910F9108954F9243
:1035D0005F926F927F929F92AF92BF92CF92DF9253
:1035E000EF92FF920F931F93CF93DF93CDB7DEB788
:1035F000A1970FB6F894DEBF0FBECDBF5C016A0184
:103600007B01922E19A281E0821710F08AE0982E99
:103610008E010F5D1F4F492C512C612C712CC7015D
:10362000B601A3019201E3D18C2D929E8019112441
:10363000015011098A3010F4805D01C0895CF801E5
:10364000808369017A01C114D104E104F10439F7DE
:10365000B801C5014BDFA1960FB6F894DEBF0FBECF
:10366000CDBFDF91CF911F910F91FF90EF90DF9031
:10367000CF90BF90AF909F907F906F905F904F9052
:1036800008952115310541F4DC01ED91FC91019083
:10369000F081E02D642F09949ACF9A01462F50E0D3
:1036A00060E070E0EECF1F920F920FB60F921124E0
:1036B0002F933F938F939F93AF93BF938091BF05B9
:1036C0009091C005A091C105B091C2053091C70588
:1036D000232F2D5F2D3720F40196A11DB11D05C0AC
:1036E000232F2A570296A11DB11D2093C705809351
:1036F000BF059093C005A093C105B093C20580910A
:10370000C3059091C405A091C505B091C605019669
:10371000A11DB11D8093C3059093C405A093C50559
:10372000B093C605BF91AF919F918F913F912F911B
:103730000F900FBE0F901F9018950F931F938FB788
:10374000F8940091BF051091C0052091C1053091FA
:10375000C2058FBFB801C9011F910F9108950F9342
:103760001F939FB7F8940091C3051091C405209151
:10377000C5053091C60586B5A89B06C08F3F21F0D0
:103780000F5F1F4F2F4F3F4F9FBF322F212F102F03
:103790000027080F111D211D311D42E0000F111FD0
:1037A000221F331F4A95D1F7B801C9011F910F910C
:1037B0000895CF92DF92EF92FF92CF93DF936B0148
:1037C0007C01CDDFEB010DC0CADF6C1B7D0B683EB9
:1037D000734038F081E0C81AD108E108F108C851F7
:1037E000DC4FC114D104E104F10471F7DF91CF91F2
:1037F000FF90EF90DF90CF900895789484B5826029
:1038000084BD84B5816084BD85B5826085BD85B584
:10381000816085BDEEE6F0E0808181608083E1E833
:10382000F0E010828081826080838081816080836B
:10383000E0E8F0E0808181608083E1EBF0E080816E
:1038400084608083E0EBF0E0808181608083EAE740
:10385000F0E08081846080838081826080838081C9
:10386000816080838081806880831092C100089588
:10387000833069F028F48130A1F0823011F514C052
:103880008630B1F08730C1F08430D9F404C0809123
:1038900080008F7703C0809180008F7D80938000AF
:1038A000089584B58F7702C084B58F7D84BD089557
:1038B0008091B0008F7703C08091B0008F7D80939E
:1038C000B0000895CF93DF9390E0FC01E458FF4FE0
:1038D0004491FC01E057FF4F8491882341F190E02F
:1038E000880F991FFC01E255FF4F25913491D901B2
:1038F0008C559F4FFC0185919491C82FD92F9FB76C
:10390000F8948C91611106C0409584238C93888132
:10391000842308C0623041F4242F209582238C93A5
:103920008881842B888302C0842B8C939FBFDF9176
:10393000CF9108950F931F93CF93DF931F92CDB72D
:10394000DEB7282F30E0F901E859FF4F8491F901E3
:10395000E458FF4F1491F901E057FF4F0491002301
:10396000C9F0882319F0698383DF6981E02FF0E0D3
:10397000EE0FFF1FEC55FF4F85919491DC019FB72F
:10398000F8948C91611103C01095812301C0812BA3
:103990008C939FBF0F90DF91CF911F910F9108954E
:1039A000AA1BBB1B51E107C0AA1FBB1FA617B70765
:1039B00010F0A61BB70B881F991F5A95A9F7809581
:1039C0009095BC01CD01089597FB072E16F4009445
:1039D00006D077FD08D0E4DF07FC05D03EF49095D3
:1039E00081959F4F0895709561957F4F0895A1E24D
:1039F0001A2EAA1BBB1BFD010DC0AA1FBB1FEE1F69
:103A0000FF1FA217B307E407F50720F0A21BB30BB3
:103A1000E40BF50B661F771F881F991F1A9469F72F
:103A200060957095809590959B01AC01BD01CF018B
:103A30000895EE0FFF1F0590F491E02D0994F8947E
:023A4000FFCFB6
:103A4200FFFFFFFF640000003C00000032000000A6
:103A52005000DEADBEEFFEED0000CC0580000000A0
:103A62000000BA055306B6052306E505D005D906BA
:103A720075066D062A0769068A06FF059B05A205DB
:103A8200B20500000000CA0C4E1A61726475696EBC
:103A92006F207365727665722069732061742000ED
:103AA200656E74726F752065746800656E74726FEE
:103AB2007520657468204E414441007265636569F2
:103AC2007665643A00656E74726F75206164632076
:103AD2004F4253544143554C4F2000656E74726FF0
:103AE2007520616463204E41444120006D6F746F04
:103AF200722073746F7020006D6F746F7220414E6C
:103B0200444120006369636C6F73436C6F636B5F46
:103B12006D6F746F722B2B2000000000005F184E37
:103B22001A011830181418541800000000E6190081
:00000001FF
